{
  "_format": "hh-sol-artifact-1",
  "contractName": "Bank",
  "sourceName": "contracts/Bank.sol",
  "abi": [
    {
      "inputs": [
        {
          "internalType": "address",
          "name": "",
          "type": "address"
        }
      ],
      "name": "balanceOf",
      "outputs": [
        {
          "internalType": "uint256",
          "name": "",
          "type": "uint256"
        }
      ],
      "stateMutability": "view",
      "type": "function"
    },
    {
      "inputs": [],
      "name": "deposit",
      "outputs": [],
      "stateMutability": "payable",
      "type": "function"
    },
    {
      "inputs": [],
      "name": "withdraw",
      "outputs": [],
      "stateMutability": "nonpayable",
      "type": "function"
    }
  ],
  "bytecode": "0x608060405234801561001057600080fd5b50610578806100206000396000f3fe6080604052600436106100345760003560e01c80633ccfd60b1461003957806370a0823114610050578063d0e30db01461008d575b600080fd5b34801561004557600080fd5b5061004e610097565b005b34801561005c57600080fd5b50610077600480360381019061007291906102c2565b61014a565b60405161008491906103b8565b60405180910390f35b610095610162565b005b60008060003373ffffffffffffffffffffffffffffffffffffffff1673ffffffffffffffffffffffffffffffffffffffff168152602001908152602001600020549050610103813373ffffffffffffffffffffffffffffffffffffffff166101b990919063ffffffff16565b60008060003373ffffffffffffffffffffffffffffffffffffffff1673ffffffffffffffffffffffffffffffffffffffff1681526020019081526020016000208190555050565b60006020528060005260406000206000915090505481565b346000803373ffffffffffffffffffffffffffffffffffffffff1673ffffffffffffffffffffffffffffffffffffffff16815260200190815260200160002060008282546101b091906103ef565b92505081905550565b804710156101fc576040517f08c379a00000000000000000000000000000000000000000000000000000000081526004016101f390610398565b60405180910390fd5b60008273ffffffffffffffffffffffffffffffffffffffff168260405161022290610363565b60006040518083038185875af1925050503d806000811461025f576040519150601f19603f3d011682016040523d82523d6000602084013e610264565b606091505b50509050806102a8576040517f08c379a000000000000000000000000000000000000000000000000000000000815260040161029f90610378565b60405180910390fd5b505050565b6000813590506102bc8161052b565b92915050565b6000602082840312156102d457600080fd5b60006102e2848285016102ad565b91505092915050565b60006102f8603a836103de565b9150610303826104b0565b604082019050919050565b600061031b601d836103de565b9150610326826104ff565b602082019050919050565b600061033e6000836103d3565b915061034982610528565b600082019050919050565b61035d81610477565b82525050565b600061036e82610331565b9150819050919050565b60006020820190508181036000830152610391816102eb565b9050919050565b600060208201905081810360008301526103b18161030e565b9050919050565b60006020820190506103cd6000830184610354565b92915050565b600081905092915050565b600082825260208201905092915050565b60006103fa82610477565b915061040583610477565b9250827fffffffffffffffffffffffffffffffffffffffffffffffffffffffffffffffff0382111561043a57610439610481565b5b828201905092915050565b600061045082610457565b9050919050565b600073ffffffffffffffffffffffffffffffffffffffff82169050919050565b6000819050919050565b7f4e487b7100000000000000000000000000000000000000000000000000000000600052601160045260246000fd5b7f416464726573733a20756e61626c6520746f2073656e642076616c75652c207260008201527f6563697069656e74206d61792068617665207265766572746564000000000000602082015250565b7f416464726573733a20696e73756666696369656e742062616c616e6365000000600082015250565b50565b61053481610445565b811461053f57600080fd5b5056fea2646970667358221220f5a5cf78389e878c6d0094af8315f1c69b61ac85eee280adcc8a239b4b77acfa64736f6c63430008040033",
  "linkReferences": {},
  "deployedLinkReferences": {}
}